{
  "contractName": "ProofOfEventAbstract",
  "abi": [
    {
      "inputs": [],
      "stateMutability": "nonpayable",
      "type": "constructor"
    },
    {
      "anonymous": false,
      "inputs": [
        {
          "indexed": true,
          "internalType": "address",
          "name": "owner",
          "type": "address"
        },
        {
          "indexed": true,
          "internalType": "address",
          "name": "approved",
          "type": "address"
        },
        {
          "indexed": true,
          "internalType": "uint256",
          "name": "tokenId",
          "type": "uint256"
        }
      ],
      "name": "Approval",
      "type": "event"
    },
    {
      "anonymous": false,
      "inputs": [
        {
          "indexed": true,
          "internalType": "address",
          "name": "owner",
          "type": "address"
        },
        {
          "indexed": true,
          "internalType": "address",
          "name": "operator",
          "type": "address"
        },
        {
          "indexed": false,
          "internalType": "bool",
          "name": "approved",
          "type": "bool"
        }
      ],
      "name": "ApprovalForAll",
      "type": "event"
    },
    {
      "anonymous": false,
      "inputs": [
        {
          "indexed": false,
          "internalType": "uint256",
          "name": "eventId",
          "type": "uint256"
        },
        {
          "indexed": false,
          "internalType": "uint256",
          "name": "tokenId",
          "type": "uint256"
        }
      ],
      "name": "EventToken",
      "type": "event"
    },
    {
      "anonymous": false,
      "inputs": [
        {
          "indexed": true,
          "internalType": "address",
          "name": "from",
          "type": "address"
        },
        {
          "indexed": true,
          "internalType": "address",
          "name": "to",
          "type": "address"
        },
        {
          "indexed": true,
          "internalType": "uint256",
          "name": "tokenId",
          "type": "uint256"
        }
      ],
      "name": "Transfer",
      "type": "event"
    },
    {
      "inputs": [
        {
          "internalType": "address",
          "name": "to",
          "type": "address"
        },
        {
          "internalType": "uint256",
          "name": "tokenId",
          "type": "uint256"
        }
      ],
      "name": "approve",
      "outputs": [],
      "stateMutability": "nonpayable",
      "type": "function"
    },
    {
      "inputs": [
        {
          "internalType": "address",
          "name": "owner",
          "type": "address"
        }
      ],
      "name": "balanceOf",
      "outputs": [
        {
          "internalType": "uint256",
          "name": "",
          "type": "uint256"
        }
      ],
      "stateMutability": "view",
      "type": "function"
    },
    {
      "inputs": [
        {
          "internalType": "uint256",
          "name": "tokenId",
          "type": "uint256"
        }
      ],
      "name": "getApproved",
      "outputs": [
        {
          "internalType": "address",
          "name": "",
          "type": "address"
        }
      ],
      "stateMutability": "view",
      "type": "function"
    },
    {
      "inputs": [
        {
          "internalType": "address",
          "name": "owner",
          "type": "address"
        },
        {
          "internalType": "address",
          "name": "operator",
          "type": "address"
        }
      ],
      "name": "isApprovedForAll",
      "outputs": [
        {
          "internalType": "bool",
          "name": "",
          "type": "bool"
        }
      ],
      "stateMutability": "view",
      "type": "function"
    },
    {
      "inputs": [],
      "name": "name",
      "outputs": [
        {
          "internalType": "string",
          "name": "",
          "type": "string"
        }
      ],
      "stateMutability": "view",
      "type": "function"
    },
    {
      "inputs": [
        {
          "internalType": "uint256",
          "name": "tokenId",
          "type": "uint256"
        }
      ],
      "name": "ownerOf",
      "outputs": [
        {
          "internalType": "address",
          "name": "",
          "type": "address"
        }
      ],
      "stateMutability": "view",
      "type": "function"
    },
    {
      "inputs": [
        {
          "internalType": "address",
          "name": "from",
          "type": "address"
        },
        {
          "internalType": "address",
          "name": "to",
          "type": "address"
        },
        {
          "internalType": "uint256",
          "name": "tokenId",
          "type": "uint256"
        }
      ],
      "name": "safeTransferFrom",
      "outputs": [],
      "stateMutability": "nonpayable",
      "type": "function"
    },
    {
      "inputs": [
        {
          "internalType": "address",
          "name": "from",
          "type": "address"
        },
        {
          "internalType": "address",
          "name": "to",
          "type": "address"
        },
        {
          "internalType": "uint256",
          "name": "tokenId",
          "type": "uint256"
        },
        {
          "internalType": "bytes",
          "name": "data",
          "type": "bytes"
        }
      ],
      "name": "safeTransferFrom",
      "outputs": [],
      "stateMutability": "nonpayable",
      "type": "function"
    },
    {
      "inputs": [
        {
          "internalType": "address",
          "name": "operator",
          "type": "address"
        },
        {
          "internalType": "bool",
          "name": "approved",
          "type": "bool"
        }
      ],
      "name": "setApprovalForAll",
      "outputs": [],
      "stateMutability": "nonpayable",
      "type": "function"
    },
    {
      "inputs": [],
      "name": "symbol",
      "outputs": [
        {
          "internalType": "string",
          "name": "",
          "type": "string"
        }
      ],
      "stateMutability": "view",
      "type": "function"
    },
    {
      "inputs": [
        {
          "internalType": "uint256",
          "name": "index",
          "type": "uint256"
        }
      ],
      "name": "tokenByIndex",
      "outputs": [
        {
          "internalType": "uint256",
          "name": "",
          "type": "uint256"
        }
      ],
      "stateMutability": "view",
      "type": "function"
    },
    {
      "inputs": [
        {
          "internalType": "address",
          "name": "owner",
          "type": "address"
        },
        {
          "internalType": "uint256",
          "name": "index",
          "type": "uint256"
        }
      ],
      "name": "tokenOfOwnerByIndex",
      "outputs": [
        {
          "internalType": "uint256",
          "name": "",
          "type": "uint256"
        }
      ],
      "stateMutability": "view",
      "type": "function"
    },
    {
      "inputs": [],
      "name": "totalSupply",
      "outputs": [
        {
          "internalType": "uint256",
          "name": "",
          "type": "uint256"
        }
      ],
      "stateMutability": "view",
      "type": "function"
    },
    {
      "inputs": [
        {
          "internalType": "address",
          "name": "from",
          "type": "address"
        },
        {
          "internalType": "address",
          "name": "to",
          "type": "address"
        },
        {
          "internalType": "uint256",
          "name": "tokenId",
          "type": "uint256"
        }
      ],
      "name": "transferFrom",
      "outputs": [],
      "stateMutability": "nonpayable",
      "type": "function"
    },
    {
      "inputs": [
        {
          "internalType": "uint256",
          "name": "tokenId",
          "type": "uint256"
        }
      ],
      "name": "tokenURI",
      "outputs": [
        {
          "internalType": "string",
          "name": "",
          "type": "string"
        }
      ],
      "stateMutability": "view",
      "type": "function"
    },
    {
      "inputs": [
        {
          "internalType": "bytes4",
          "name": "interfaceId",
          "type": "bytes4"
        }
      ],
      "name": "supportsInterface",
      "outputs": [
        {
          "internalType": "bool",
          "name": "",
          "type": "bool"
        }
      ],
      "stateMutability": "view",
      "type": "function"
    },
    {
      "inputs": [
        {
          "internalType": "uint256",
          "name": "tokenId",
          "type": "uint256"
        }
      ],
      "name": "getEventId",
      "outputs": [
        {
          "internalType": "uint256",
          "name": "",
          "type": "uint256"
        }
      ],
      "stateMutability": "view",
      "type": "function"
    },
    {
      "inputs": [
        {
          "internalType": "uint256",
          "name": "eventId",
          "type": "uint256"
        },
        {
          "internalType": "string",
          "name": "tokenUri",
          "type": "string"
        },
        {
          "internalType": "address",
          "name": "to",
          "type": "address"
        }
      ],
      "name": "mintToken",
      "outputs": [
        {
          "internalType": "bool",
          "name": "",
          "type": "bool"
        }
      ],
      "stateMutability": "nonpayable",
      "type": "function"
    },
    {
      "inputs": [
        {
          "internalType": "uint256",
          "name": "eventId",
          "type": "uint256"
        },
        {
          "internalType": "string[]",
          "name": "tokenUri",
          "type": "string[]"
        },
        {
          "internalType": "address[]",
          "name": "to",
          "type": "address[]"
        }
      ],
      "name": "mintTokenToManyUsers",
      "outputs": [
        {
          "internalType": "bool",
          "name": "",
          "type": "bool"
        }
      ],
      "stateMutability": "nonpayable",
      "type": "function"
    }
  ],
  "bytecode": "0x60806040523480156200001157600080fd5b506040518060400160405280601281526020017f4176616e6f6450726f6f664f664576656e7400000000000000000000000000008152506040518060400160405280600481526020017f41504f450000000000000000000000000000000000000000000000000000000081525081600090816200008f919062000324565b508060019081620000a1919062000324565b5050506200040b565b600081519050919050565b7f4e487b7100000000000000000000000000000000000000000000000000000000600052604160045260246000fd5b7f4e487b7100000000000000000000000000000000000000000000000000000000600052602260045260246000fd5b600060028204905060018216806200012c57607f821691505b602082108103620001425762000141620000e4565b5b50919050565b60008190508160005260206000209050919050565b60006020601f8301049050919050565b600082821b905092915050565b600060088302620001ac7fffffffffffffffffffffffffffffffffffffffffffffffffffffffffffffffff826200016d565b620001b886836200016d565b95508019841693508086168417925050509392505050565b6000819050919050565b6000819050919050565b600062000205620001ff620001f984620001d0565b620001da565b620001d0565b9050919050565b6000819050919050565b6200022183620001e4565b6200023962000230826200020c565b8484546200017a565b825550505050565b600090565b6200025062000241565b6200025d81848462000216565b505050565b5b8181101562000285576200027960008262000246565b60018101905062000263565b5050565b601f821115620002d4576200029e8162000148565b620002a9846200015d565b81016020851015620002b9578190505b620002d1620002c8856200015d565b83018262000262565b50505b505050565b600082821c905092915050565b6000620002f960001984600802620002d9565b1980831691505092915050565b6000620003148383620002e6565b9150826002028217905092915050565b6200032f82620000aa565b67ffffffffffffffff8111156200034b576200034a620000b5565b5b62000357825462000113565b6200036482828562000289565b600060209050601f8311600181146200039c576000841562000387578287015190505b62000393858262000306565b86555062000403565b601f198416620003ac8662000148565b60005b82811015620003d657848901518255600182019150602085019450602081019050620003af565b86831015620003f65784890151620003f2601f891682620002e6565b8355505b6001600288020188555050505b505050505050565b613633806200041b6000396000f3fe608060405234801561001057600080fd5b50600436106101215760003560e01c80634f6ccce7116100ad578063a22cb46511610071578063a22cb46514610354578063b88d4fde14610370578063c3be559b1461038c578063c87b56dd146103bc578063e985e9c5146103ec57610121565b80634f6ccce7146102765780636352211e146102a657806370a08231146102d65780638da69c841461030657806395d89b411461033657610121565b806318160ddd116100f457806318160ddd146101c057806323b872dd146101de5780632751edb8146101fa5780632f745c591461022a57806342842e0e1461025a57610121565b806301ffc9a71461012657806306fdde0314610156578063081812fc14610174578063095ea7b3146101a4575b600080fd5b610140600480360381019061013b9190611fc4565b61041c565b60405161014d919061200c565b60405180910390f35b61015e61042e565b60405161016b91906120c0565b60405180910390f35b61018e60048036038101906101899190612118565b6104c0565b60405161019b9190612186565b60405180910390f35b6101be60048036038101906101b991906121cd565b610506565b005b6101c861061d565b6040516101d5919061221c565b60405180910390f35b6101f860048036038101906101f39190612237565b61062a565b005b610214600480360381019061020f9190612568565b61068a565b604051610221919061200c565b60405180910390f35b610244600480360381019061023f91906121cd565b610712565b604051610251919061221c565b60405180910390f35b610274600480360381019061026f9190612237565b6107b7565b005b610290600480360381019061028b9190612118565b6107d7565b60405161029d919061221c565b60405180910390f35b6102c060048036038101906102bb9190612118565b610848565b6040516102cd9190612186565b60405180910390f35b6102f060048036038101906102eb91906125f3565b6108f9565b6040516102fd919061221c565b60405180910390f35b610320600480360381019061031b9190612620565b6109b0565b60405161032d919061200c565b60405180910390f35b61033e6109e0565b60405161034b91906120c0565b60405180910390f35b61036e600480360381019061036991906126bb565b610a72565b005b61038a6004803603810190610385919061279c565b610a88565b005b6103a660048036038101906103a19190612118565b610aea565b6040516103b3919061221c565b60405180910390f35b6103d660048036038101906103d19190612118565b610b07565b6040516103e391906120c0565b60405180910390f35b6104066004803603810190610401919061281f565b610b19565b604051610413919061200c565b60405180910390f35b600061042782610bad565b9050919050565b60606000805461043d9061288e565b80601f01602080910402602001604051908101604052809291908181526020018280546104699061288e565b80156104b65780601f1061048b576101008083540402835291602001916104b6565b820191906000526020600020905b81548152906001019060200180831161049957829003601f168201915b5050505050905090565b60006104cb82610c27565b6004600083815260200190815260200160002060009054906101000a900473ffffffffffffffffffffffffffffffffffffffff169050919050565b600061051182610848565b90508073ffffffffffffffffffffffffffffffffffffffff168373ffffffffffffffffffffffffffffffffffffffff1603610581576040517f08c379a000000000000000000000000000000000000000000000000000000000815260040161057890612931565b60405180910390fd5b8073ffffffffffffffffffffffffffffffffffffffff166105a0610c72565b73ffffffffffffffffffffffffffffffffffffffff1614806105cf57506105ce816105c9610c72565b610b19565b5b61060e576040517f08c379a0000000000000000000000000000000000000000000000000000000008152600401610605906129c3565b60405180910390fd5b6106188383610c7a565b505050565b6000600880549050905090565b61063b610635610c72565b82610d33565b61067a576040517f08c379a000000000000000000000000000000000000000000000000000000000815260040161067190612a55565b60405180910390fd5b610685838383610dc8565b505050565b6000806000905060005b8351811015610705576106a7600b61102e565b6106b1600b611044565b91506106f3828683815181106106ca576106c9612a75565b5b6020026020010151888785815181106106e6576106e5612a75565b5b6020026020010151611052565b50806106fe90612ad3565b9050610694565b5060019150509392505050565b600061071d836108f9565b821061075e576040517f08c379a000000000000000000000000000000000000000000000000000000000815260040161075590612b8d565b60405180910390fd5b600660008473ffffffffffffffffffffffffffffffffffffffff1673ffffffffffffffffffffffffffffffffffffffff168152602001908152602001600020600083815260200190815260200160002054905092915050565b6107d283838360405180602001604052806000815250610a88565b505050565b60006107e161061d565b8210610822576040517f08c379a000000000000000000000000000000000000000000000000000000000815260040161081990612c1f565b60405180910390fd5b6008828154811061083657610835612a75565b5b90600052602060002001549050919050565b6000806002600084815260200190815260200160002060009054906101000a900473ffffffffffffffffffffffffffffffffffffffff169050600073ffffffffffffffffffffffffffffffffffffffff168173ffffffffffffffffffffffffffffffffffffffff16036108f0576040517f08c379a00000000000000000000000000000000000000000000000000000000081526004016108e790612c8b565b60405180910390fd5b80915050919050565b60008073ffffffffffffffffffffffffffffffffffffffff168273ffffffffffffffffffffffffffffffffffffffff1603610969576040517f08c379a000000000000000000000000000000000000000000000000000000000815260040161096090612d1d565b60405180910390fd5b600360008373ffffffffffffffffffffffffffffffffffffffff1673ffffffffffffffffffffffffffffffffffffffff168152602001908152602001600020549050919050565b60006109bc600b61102e565b60006109c8600b611044565b90506109d681858786611052565b9150509392505050565b6060600180546109ef9061288e565b80601f0160208091040260200160405190810160405280929190818152602001828054610a1b9061288e565b8015610a685780601f10610a3d57610100808354040283529160200191610a68565b820191906000526020600020905b815481529060010190602001808311610a4b57829003601f168201915b5050505050905090565b610a84610a7d610c72565b83836110c5565b5050565b610a99610a93610c72565b83610d33565b610ad8576040517f08c379a0000000000000000000000000000000000000000000000000000000008152600401610acf90612a55565b60405180910390fd5b610ae484848484611231565b50505050565b6000600c6000838152602001908152602001600020549050919050565b6060610b128261128d565b9050919050565b6000600560008473ffffffffffffffffffffffffffffffffffffffff1673ffffffffffffffffffffffffffffffffffffffff16815260200190815260200160002060008373ffffffffffffffffffffffffffffffffffffffff1673ffffffffffffffffffffffffffffffffffffffff16815260200190815260200160002060009054906101000a900460ff16905092915050565b60007f780e9d63000000000000000000000000000000000000000000000000000000007bffffffffffffffffffffffffffffffffffffffffffffffffffffffff1916827bffffffffffffffffffffffffffffffffffffffffffffffffffffffff19161480610c205750610c1f8261139f565b5b9050919050565b610c3081611481565b610c6f576040517f08c379a0000000000000000000000000000000000000000000000000000000008152600401610c6690612c8b565b60405180910390fd5b50565b600033905090565b816004600083815260200190815260200160002060006101000a81548173ffffffffffffffffffffffffffffffffffffffff021916908373ffffffffffffffffffffffffffffffffffffffff160217905550808273ffffffffffffffffffffffffffffffffffffffff16610ced83610848565b73ffffffffffffffffffffffffffffffffffffffff167f8c5be1e5ebec7d5bd14f71427d1e84f3dd0314c0f7b2291e5b200ac8c7c3b92560405160405180910390a45050565b600080610d3f83610848565b90508073ffffffffffffffffffffffffffffffffffffffff168473ffffffffffffffffffffffffffffffffffffffff161480610d815750610d808185610b19565b5b80610dbf57508373ffffffffffffffffffffffffffffffffffffffff16610da7846104c0565b73ffffffffffffffffffffffffffffffffffffffff16145b91505092915050565b8273ffffffffffffffffffffffffffffffffffffffff16610de882610848565b73ffffffffffffffffffffffffffffffffffffffff1614610e3e576040517f08c379a0000000000000000000000000000000000000000000000000000000008152600401610e3590612daf565b60405180910390fd5b600073ffffffffffffffffffffffffffffffffffffffff168273ffffffffffffffffffffffffffffffffffffffff1603610ead576040517f08c379a0000000000000000000000000000000000000000000000000000000008152600401610ea490612e41565b60405180910390fd5b610eb88383836114ed565b610ec3600082610c7a565b6001600360008573ffffffffffffffffffffffffffffffffffffffff1673ffffffffffffffffffffffffffffffffffffffff1681526020019081526020016000206000828254610f139190612e61565b925050819055506001600360008473ffffffffffffffffffffffffffffffffffffffff1673ffffffffffffffffffffffffffffffffffffffff1681526020019081526020016000206000828254610f6a9190612e95565b92505081905550816002600083815260200190815260200160002060006101000a81548173ffffffffffffffffffffffffffffffffffffffff021916908373ffffffffffffffffffffffffffffffffffffffff160217905550808273ffffffffffffffffffffffffffffffffffffffff168473ffffffffffffffffffffffffffffffffffffffff167fddf252ad1be2c89b69c2b068fc378daa952ba7f163c4a11628f55a4df523b3ef60405160405180910390a46110298383836114fd565b505050565b6001816000016000828254019250508190555050565b600081600001549050919050565b600061105e8286611502565b61106885856116db565b82600c6000878152602001908152602001600020819055507f4b3711cd7ece062b0828c1b6e08d814a72d4c003383a016c833cbb1b45956e3483866040516110b1929190612eeb565b60405180910390a160019050949350505050565b8173ffffffffffffffffffffffffffffffffffffffff168373ffffffffffffffffffffffffffffffffffffffff1603611133576040517f08c379a000000000000000000000000000000000000000000000000000000000815260040161112a90612f60565b60405180910390fd5b80600560008573ffffffffffffffffffffffffffffffffffffffff1673ffffffffffffffffffffffffffffffffffffffff16815260200190815260200160002060008473ffffffffffffffffffffffffffffffffffffffff1673ffffffffffffffffffffffffffffffffffffffff16815260200190815260200160002060006101000a81548160ff0219169083151502179055508173ffffffffffffffffffffffffffffffffffffffff168373ffffffffffffffffffffffffffffffffffffffff167f17307eab39ab6107e8899845ad3d59bd9653f200f220920489ca2b5937696c3183604051611224919061200c565b60405180910390a3505050565b61123c848484610dc8565b61124884848484611748565b611287576040517f08c379a000000000000000000000000000000000000000000000000000000000815260040161127e90612ff2565b60405180910390fd5b50505050565b606061129882610c27565b6000600a600084815260200190815260200160002080546112b89061288e565b80601f01602080910402602001604051908101604052809291908181526020018280546112e49061288e565b80156113315780601f1061130657610100808354040283529160200191611331565b820191906000526020600020905b81548152906001019060200180831161131457829003601f168201915b5050505050905060006113426118cf565b9050600081510361135757819250505061139a565b60008251111561138c57808260405160200161137492919061304e565b6040516020818303038152906040529250505061139a565b611395846118e6565b925050505b919050565b60007f80ac58cd000000000000000000000000000000000000000000000000000000007bffffffffffffffffffffffffffffffffffffffffffffffffffffffff1916827bffffffffffffffffffffffffffffffffffffffffffffffffffffffff1916148061146a57507f5b5e139f000000000000000000000000000000000000000000000000000000007bffffffffffffffffffffffffffffffffffffffffffffffffffffffff1916827bffffffffffffffffffffffffffffffffffffffffffffffffffffffff1916145b8061147a57506114798261194e565b5b9050919050565b60008073ffffffffffffffffffffffffffffffffffffffff166002600084815260200190815260200160002060009054906101000a900473ffffffffffffffffffffffffffffffffffffffff1673ffffffffffffffffffffffffffffffffffffffff1614159050919050565b6114f88383836119b8565b505050565b505050565b600073ffffffffffffffffffffffffffffffffffffffff168273ffffffffffffffffffffffffffffffffffffffff1603611571576040517f08c379a0000000000000000000000000000000000000000000000000000000008152600401611568906130be565b60405180910390fd5b61157a81611481565b156115ba576040517f08c379a00000000000000000000000000000000000000000000000000000000081526004016115b19061312a565b60405180910390fd5b6115c6600083836114ed565b6001600360008473ffffffffffffffffffffffffffffffffffffffff1673ffffffffffffffffffffffffffffffffffffffff16815260200190815260200160002060008282546116169190612e95565b92505081905550816002600083815260200190815260200160002060006101000a81548173ffffffffffffffffffffffffffffffffffffffff021916908373ffffffffffffffffffffffffffffffffffffffff160217905550808273ffffffffffffffffffffffffffffffffffffffff16600073ffffffffffffffffffffffffffffffffffffffff167fddf252ad1be2c89b69c2b068fc378daa952ba7f163c4a11628f55a4df523b3ef60405160405180910390a46116d7600083836114fd565b5050565b6116e482611481565b611723576040517f08c379a000000000000000000000000000000000000000000000000000000000815260040161171a906131bc565b60405180910390fd5b80600a600084815260200190815260200160002090816117439190613388565b505050565b60006117698473ffffffffffffffffffffffffffffffffffffffff16611aca565b156118c2578373ffffffffffffffffffffffffffffffffffffffff1663150b7a02611792610c72565b8786866040518563ffffffff1660e01b81526004016117b494939291906134af565b6020604051808303816000875af19250505080156117f057506040513d601f19601f820116820180604052508101906117ed9190613510565b60015b611872573d8060008114611820576040519150601f19603f3d011682016040523d82523d6000602084013e611825565b606091505b50600081510361186a576040517f08c379a000000000000000000000000000000000000000000000000000000000815260040161186190612ff2565b60405180910390fd5b805181602001fd5b63150b7a0260e01b7bffffffffffffffffffffffffffffffffffffffffffffffffffffffff1916817bffffffffffffffffffffffffffffffffffffffffffffffffffffffff1916149150506118c7565b600190505b949350505050565b606060405180602001604052806000815250905090565b60606118f182610c27565b60006118fb6118cf565b9050600081511161191b5760405180602001604052806000815250611946565b8061192584611aed565b60405160200161193692919061304e565b6040516020818303038152906040525b915050919050565b60007f01ffc9a7000000000000000000000000000000000000000000000000000000007bffffffffffffffffffffffffffffffffffffffffffffffffffffffff1916827bffffffffffffffffffffffffffffffffffffffffffffffffffffffff1916149050919050565b6119c3838383611c4d565b600073ffffffffffffffffffffffffffffffffffffffff168373ffffffffffffffffffffffffffffffffffffffff1603611a0557611a0081611c52565b611a44565b8173ffffffffffffffffffffffffffffffffffffffff168373ffffffffffffffffffffffffffffffffffffffff1614611a4357611a428382611c9b565b5b5b600073ffffffffffffffffffffffffffffffffffffffff168273ffffffffffffffffffffffffffffffffffffffff1603611a8657611a8181611e08565b611ac5565b8273ffffffffffffffffffffffffffffffffffffffff168273ffffffffffffffffffffffffffffffffffffffff1614611ac457611ac38282611ed9565b5b5b505050565b6000808273ffffffffffffffffffffffffffffffffffffffff163b119050919050565b606060008203611b34576040518060400160405280600181526020017f30000000000000000000000000000000000000000000000000000000000000008152509050611c48565b600082905060005b60008214611b66578080611b4f90612ad3565b915050600a82611b5f919061356c565b9150611b3c565b60008167ffffffffffffffff811115611b8257611b8161228f565b5b6040519080825280601f01601f191660200182016040528015611bb45781602001600182028036833780820191505090505b5090505b60008514611c4157600182611bcd9190612e61565b9150600a85611bdc919061359d565b6030611be89190612e95565b60f81b818381518110611bfe57611bfd612a75565b5b60200101907effffffffffffffffffffffffffffffffffffffffffffffffffffffffffffff1916908160001a905350600a85611c3a919061356c565b9450611bb8565b8093505050505b919050565b505050565b6008805490506009600083815260200190815260200160002081905550600881908060018154018082558091505060019003906000526020600020016000909190919091505550565b60006001611ca8846108f9565b611cb29190612e61565b9050600060076000848152602001908152602001600020549050818114611d97576000600660008673ffffffffffffffffffffffffffffffffffffffff1673ffffffffffffffffffffffffffffffffffffffff168152602001908152602001600020600084815260200190815260200160002054905080600660008773ffffffffffffffffffffffffffffffffffffffff1673ffffffffffffffffffffffffffffffffffffffff168152602001908152602001600020600084815260200190815260200160002081905550816007600083815260200190815260200160002081905550505b6007600084815260200190815260200160002060009055600660008573ffffffffffffffffffffffffffffffffffffffff1673ffffffffffffffffffffffffffffffffffffffff16815260200190815260200160002060008381526020019081526020016000206000905550505050565b60006001600880549050611e1c9190612e61565b9050600060096000848152602001908152602001600020549050600060088381548110611e4c57611e4b612a75565b5b906000526020600020015490508060088381548110611e6e57611e6d612a75565b5b906000526020600020018190555081600960008381526020019081526020016000208190555060096000858152602001908152602001600020600090556008805480611ebd57611ebc6135ce565b5b6001900381819060005260206000200160009055905550505050565b6000611ee4836108f9565b905081600660008573ffffffffffffffffffffffffffffffffffffffff1673ffffffffffffffffffffffffffffffffffffffff168152602001908152602001600020600083815260200190815260200160002081905550806007600084815260200190815260200160002081905550505050565b6000604051905090565b600080fd5b600080fd5b60007fffffffff0000000000000000000000000000000000000000000000000000000082169050919050565b611fa181611f6c565b8114611fac57600080fd5b50565b600081359050611fbe81611f98565b92915050565b600060208284031215611fda57611fd9611f62565b5b6000611fe884828501611faf565b91505092915050565b60008115159050919050565b61200681611ff1565b82525050565b60006020820190506120216000830184611ffd565b92915050565b600081519050919050565b600082825260208201905092915050565b60005b83811015612061578082015181840152602081019050612046565b83811115612070576000848401525b50505050565b6000601f19601f8301169050919050565b600061209282612027565b61209c8185612032565b93506120ac818560208601612043565b6120b581612076565b840191505092915050565b600060208201905081810360008301526120da8184612087565b905092915050565b6000819050919050565b6120f5816120e2565b811461210057600080fd5b50565b600081359050612112816120ec565b92915050565b60006020828403121561212e5761212d611f62565b5b600061213c84828501612103565b91505092915050565b600073ffffffffffffffffffffffffffffffffffffffff82169050919050565b600061217082612145565b9050919050565b61218081612165565b82525050565b600060208201905061219b6000830184612177565b92915050565b6121aa81612165565b81146121b557600080fd5b50565b6000813590506121c7816121a1565b92915050565b600080604083850312156121e4576121e3611f62565b5b60006121f2858286016121b8565b925050602061220385828601612103565b9150509250929050565b612216816120e2565b82525050565b6000602082019050612231600083018461220d565b92915050565b6000806000606084860312156122505761224f611f62565b5b600061225e868287016121b8565b935050602061226f868287016121b8565b925050604061228086828701612103565b9150509250925092565b600080fd5b7f4e487b7100000000000000000000000000000000000000000000000000000000600052604160045260246000fd5b6122c782612076565b810181811067ffffffffffffffff821117156122e6576122e561228f565b5b80604052505050565b60006122f9611f58565b905061230582826122be565b919050565b600067ffffffffffffffff8211156123255761232461228f565b5b602082029050602081019050919050565b600080fd5b600080fd5b600067ffffffffffffffff82111561235b5761235a61228f565b5b61236482612076565b9050602081019050919050565b82818337600083830152505050565b600061239361238e84612340565b6122ef565b9050828152602081018484840111156123af576123ae61233b565b5b6123ba848285612371565b509392505050565b600082601f8301126123d7576123d661228a565b5b81356123e7848260208601612380565b91505092915050565b60006124036123fe8461230a565b6122ef565b9050808382526020820190506020840283018581111561242657612425612336565b5b835b8181101561246d57803567ffffffffffffffff81111561244b5761244a61228a565b5b80860161245889826123c2565b85526020850194505050602081019050612428565b5050509392505050565b600082601f83011261248c5761248b61228a565b5b813561249c8482602086016123f0565b91505092915050565b600067ffffffffffffffff8211156124c0576124bf61228f565b5b602082029050602081019050919050565b60006124e46124df846124a5565b6122ef565b9050808382526020820190506020840283018581111561250757612506612336565b5b835b81811015612530578061251c88826121b8565b845260208401935050602081019050612509565b5050509392505050565b600082601f83011261254f5761254e61228a565b5b813561255f8482602086016124d1565b91505092915050565b60008060006060848603121561258157612580611f62565b5b600061258f86828701612103565b935050602084013567ffffffffffffffff8111156125b0576125af611f67565b5b6125bc86828701612477565b925050604084013567ffffffffffffffff8111156125dd576125dc611f67565b5b6125e98682870161253a565b9150509250925092565b60006020828403121561260957612608611f62565b5b6000612617848285016121b8565b91505092915050565b60008060006060848603121561263957612638611f62565b5b600061264786828701612103565b935050602084013567ffffffffffffffff81111561266857612667611f67565b5b612674868287016123c2565b9250506040612685868287016121b8565b9150509250925092565b61269881611ff1565b81146126a357600080fd5b50565b6000813590506126b58161268f565b92915050565b600080604083850312156126d2576126d1611f62565b5b60006126e0858286016121b8565b92505060206126f1858286016126a6565b9150509250929050565b600067ffffffffffffffff8211156127165761271561228f565b5b61271f82612076565b9050602081019050919050565b600061273f61273a846126fb565b6122ef565b90508281526020810184848401111561275b5761275a61233b565b5b612766848285612371565b509392505050565b600082601f8301126127835761278261228a565b5b813561279384826020860161272c565b91505092915050565b600080600080608085870312156127b6576127b5611f62565b5b60006127c4878288016121b8565b94505060206127d5878288016121b8565b93505060406127e687828801612103565b925050606085013567ffffffffffffffff81111561280757612806611f67565b5b6128138782880161276e565b91505092959194509250565b6000806040838503121561283657612835611f62565b5b6000612844858286016121b8565b9250506020612855858286016121b8565b9150509250929050565b7f4e487b7100000000000000000000000000000000000000000000000000000000600052602260045260246000fd5b600060028204905060018216806128a657607f821691505b6020821081036128b9576128b861285f565b5b50919050565b7f4552433732313a20617070726f76616c20746f2063757272656e74206f776e6560008201527f7200000000000000000000000000000000000000000000000000000000000000602082015250565b600061291b602183612032565b9150612926826128bf565b604082019050919050565b6000602082019050818103600083015261294a8161290e565b9050919050565b7f4552433732313a20617070726f76652063616c6c6572206973206e6f7420746f60008201527f6b656e206f776e6572206e6f7220617070726f76656420666f7220616c6c0000602082015250565b60006129ad603e83612032565b91506129b882612951565b604082019050919050565b600060208201905081810360008301526129dc816129a0565b9050919050565b7f4552433732313a2063616c6c6572206973206e6f7420746f6b656e206f776e6560008201527f72206e6f7220617070726f766564000000000000000000000000000000000000602082015250565b6000612a3f602e83612032565b9150612a4a826129e3565b604082019050919050565b60006020820190508181036000830152612a6e81612a32565b9050919050565b7f4e487b7100000000000000000000000000000000000000000000000000000000600052603260045260246000fd5b7f4e487b7100000000000000000000000000000000000000000000000000000000600052601160045260246000fd5b6000612ade826120e2565b91507fffffffffffffffffffffffffffffffffffffffffffffffffffffffffffffffff8203612b1057612b0f612aa4565b5b600182019050919050565b7f455243373231456e756d657261626c653a206f776e657220696e646578206f7560008201527f74206f6620626f756e6473000000000000000000000000000000000000000000602082015250565b6000612b77602b83612032565b9150612b8282612b1b565b604082019050919050565b60006020820190508181036000830152612ba681612b6a565b9050919050565b7f455243373231456e756d657261626c653a20676c6f62616c20696e646578206f60008201527f7574206f6620626f756e64730000000000000000000000000000000000000000602082015250565b6000612c09602c83612032565b9150612c1482612bad565b604082019050919050565b60006020820190508181036000830152612c3881612bfc565b9050919050565b7f4552433732313a20696e76616c696420746f6b656e2049440000000000000000600082015250565b6000612c75601883612032565b9150612c8082612c3f565b602082019050919050565b60006020820190508181036000830152612ca481612c68565b9050919050565b7f4552433732313a2061646472657373207a65726f206973206e6f74206120766160008201527f6c6964206f776e65720000000000000000000000000000000000000000000000602082015250565b6000612d07602983612032565b9150612d1282612cab565b604082019050919050565b60006020820190508181036000830152612d3681612cfa565b9050919050565b7f4552433732313a207472616e736665722066726f6d20696e636f72726563742060008201527f6f776e6572000000000000000000000000000000000000000000000000000000602082015250565b6000612d99602583612032565b9150612da482612d3d565b604082019050919050565b60006020820190508181036000830152612dc881612d8c565b9050919050565b7f4552433732313a207472616e7366657220746f20746865207a65726f2061646460008201527f7265737300000000000000000000000000000000000000000000000000000000602082015250565b6000612e2b602483612032565b9150612e3682612dcf565b604082019050919050565b60006020820190508181036000830152612e5a81612e1e565b9050919050565b6000612e6c826120e2565b9150612e77836120e2565b925082821015612e8a57612e89612aa4565b5b828203905092915050565b6000612ea0826120e2565b9150612eab836120e2565b9250827fffffffffffffffffffffffffffffffffffffffffffffffffffffffffffffffff03821115612ee057612edf612aa4565b5b828201905092915050565b6000604082019050612f00600083018561220d565b612f0d602083018461220d565b9392505050565b7f4552433732313a20617070726f766520746f2063616c6c657200000000000000600082015250565b6000612f4a601983612032565b9150612f5582612f14565b602082019050919050565b60006020820190508181036000830152612f7981612f3d565b9050919050565b7f4552433732313a207472616e7366657220746f206e6f6e20455243373231526560008201527f63656976657220696d706c656d656e7465720000000000000000000000000000602082015250565b6000612fdc603283612032565b9150612fe782612f80565b604082019050919050565b6000602082019050818103600083015261300b81612fcf565b9050919050565b600081905092915050565b600061302882612027565b6130328185613012565b9350613042818560208601612043565b80840191505092915050565b600061305a828561301d565b9150613066828461301d565b91508190509392505050565b7f4552433732313a206d696e7420746f20746865207a65726f2061646472657373600082015250565b60006130a8602083612032565b91506130b382613072565b602082019050919050565b600060208201905081810360008301526130d78161309b565b9050919050565b7f4552433732313a20746f6b656e20616c7265616479206d696e74656400000000600082015250565b6000613114601c83612032565b915061311f826130de565b602082019050919050565b6000602082019050818103600083015261314381613107565b9050919050565b7f45524337323155524953746f726167653a2055524920736574206f66206e6f6e60008201527f6578697374656e7420746f6b656e000000000000000000000000000000000000602082015250565b60006131a6602e83612032565b91506131b18261314a565b604082019050919050565b600060208201905081810360008301526131d581613199565b9050919050565b60008190508160005260206000209050919050565b60006020601f8301049050919050565b600082821b905092915050565b60006008830261323e7fffffffffffffffffffffffffffffffffffffffffffffffffffffffffffffffff82613201565b6132488683613201565b95508019841693508086168417925050509392505050565b6000819050919050565b600061328561328061327b846120e2565b613260565b6120e2565b9050919050565b6000819050919050565b61329f8361326a565b6132b36132ab8261328c565b84845461320e565b825550505050565b600090565b6132c86132bb565b6132d3818484613296565b505050565b5b818110156132f7576132ec6000826132c0565b6001810190506132d9565b5050565b601f82111561333c5761330d816131dc565b613316846131f1565b81016020851015613325578190505b613339613331856131f1565b8301826132d8565b50505b505050565b600082821c905092915050565b600061335f60001984600802613341565b1980831691505092915050565b6000613378838361334e565b9150826002028217905092915050565b61339182612027565b67ffffffffffffffff8111156133aa576133a961228f565b5b6133b4825461288e565b6133bf8282856132fb565b600060209050601f8311600181146133f257600084156133e0578287015190505b6133ea858261336c565b865550613452565b601f198416613400866131dc565b60005b8281101561342857848901518255600182019150602085019450602081019050613403565b868310156134455784890151613441601f89168261334e565b8355505b6001600288020188555050505b505050505050565b600081519050919050565b600082825260208201905092915050565b60006134818261345a565b61348b8185613465565b935061349b818560208601612043565b6134a481612076565b840191505092915050565b60006080820190506134c46000830187612177565b6134d16020830186612177565b6134de604083018561220d565b81810360608301526134f08184613476565b905095945050505050565b60008151905061350a81611f98565b92915050565b60006020828403121561352657613525611f62565b5b6000613534848285016134fb565b91505092915050565b7f4e487b7100000000000000000000000000000000000000000000000000000000600052601260045260246000fd5b6000613577826120e2565b9150613582836120e2565b9250826135925761359161353d565b5b828204905092915050565b60006135a8826120e2565b91506135b3836120e2565b9250826135c3576135c261353d565b5b828206905092915050565b7f4e487b7100000000000000000000000000000000000000000000000000000000600052603160045260246000fdfea264697066735822122095cf2c2328c2ab4451ad72479429a9afbd059b1521952a18d6fecd6b241ce1c464736f6c634300080f0033",
  "immutableReferences": {},
  "source": "// SPDX-License-Identifier: GPL-3.0\r\npragma solidity >=0.7.0 <0.9.0;\r\n\r\nimport \"@openzeppelin/contracts/token/ERC721/extensions/ERC721Enumerable.sol\";\r\nimport \"@openzeppelin/contracts-upgradeable/proxy/utils/Initializable.sol\";\r\nimport \"@openzeppelin/contracts/token/ERC721/extensions/ERC721URIStorage.sol\";\r\nimport \"@openzeppelin/contracts/token/ERC721/ERC721.sol\";\r\nimport \"@openzeppelin/contracts/utils/Counters.sol\";\r\n\r\ncontract ProofOfEventAbstract is ERC721, ERC721Enumerable, ERC721URIStorage {\r\n    constructor() ERC721(\"AvanodProofOfEvent\", \"APOE\") {}\r\n\r\n    event EventToken(uint256 eventId, uint256 tokenId);\r\n    using Counters for Counters.Counter;\r\n\r\n    // Last Used id (used to generate new ids)\r\n    Counters.Counter private _lastTokenId;\r\n\r\n    // Event Id for each token, this is a dictionary to hold (TokenId,EventId)\r\n    mapping(uint256 => uint256) private _tokenPerEvent;\r\n\r\n    function _beforeTokenTransfer(\r\n        address from,\r\n        address to,\r\n        uint256 tokenId\r\n    ) internal override(ERC721, ERC721Enumerable) {\r\n        super._beforeTokenTransfer(from, to, tokenId);\r\n    }\r\n\r\n    function tokenURI(uint256 tokenId)\r\n        public\r\n        view\r\n        override(ERC721, ERC721URIStorage)\r\n        returns (string memory)\r\n    {\r\n        return super.tokenURI(tokenId);\r\n    }\r\n\r\n    function supportsInterface(bytes4 interfaceId)\r\n        public\r\n        view\r\n        override(ERC721, ERC721Enumerable)\r\n        returns (bool)\r\n    {\r\n        return super.supportsInterface(interfaceId);\r\n    }\r\n\r\n    /**\r\n     * @dev Gets the event Id\r\n     * @param tokenId representing the token Id\r\n     * @return uint256 representing the event Id\r\n     */\r\n    function getEventId(uint256 tokenId) external view returns (uint256) {\r\n        return _tokenPerEvent[tokenId];\r\n    }\r\n\r\n    /**\r\n     * @dev Function to create and mint tokens\r\n     * @param eventId EventId for the new token\r\n     * @param tokenUri Address of NFT MetaData which is stored on IPFS\r\n     * @param to The address that will receive the minted tokens.\r\n     * @return A boolean that indicates if the operation was successful.\r\n     */\r\n    function mintToken(\r\n        uint256 eventId,\r\n        string memory tokenUri,\r\n        address to\r\n    ) public returns (bool) {\r\n        _lastTokenId.increment();\r\n        uint256 __tokenId = _lastTokenId.current();\r\n        return _mintToken(__tokenId, tokenUri, eventId, to);\r\n    }\r\n\r\n    /**\r\n     * @dev Function to mint tokens for Many Users\r\n     * @param eventId EventId for the new token\r\n     * @param tokenUri Address of NFT MetaData which is stored on IPFS\r\n     * @param to The address that will receive the minted tokens.\r\n     * @return A boolean that indicates if the operation was successful.\r\n     */\r\n    function mintTokenToManyUsers(\r\n        uint256 eventId,\r\n        string[] memory tokenUri,\r\n        address[] memory to\r\n    ) public returns (bool) {\r\n        uint256 __tokenId = 0;\r\n        for (uint256 i = 0; i < to.length; ++i) {\r\n            _lastTokenId.increment();\r\n            __tokenId = _lastTokenId.current();\r\n            _mintToken(__tokenId, tokenUri[i], eventId, to[i]);\r\n        }\r\n        return true;\r\n    }\r\n\r\n    /**\r\n     * @dev Function to mint tokens\r\n     * @param tokenId The token id to mint.\r\n     * @param eventId EventId for the new token\r\n     * @param tokenUri TokenURI to store on ERC721URIStorage.\r\n     * @param to The address that will receive the minted tokens.\r\n     * @return A boolean that indicates if the operation was successful.\r\n     */\r\n    function _mintToken(\r\n        uint256 tokenId,\r\n        string memory tokenUri,\r\n        uint256 eventId,\r\n        address to\r\n    ) internal returns (bool) {\r\n        // TODO Verify that the token receiver ('to') do not have already a token for the event ('eventId')\r\n\r\n        _mint(to, tokenId);\r\n        _setTokenURI(tokenId, tokenUri);\r\n        _tokenPerEvent[tokenId] = eventId;\r\n        emit EventToken(eventId, tokenId);\r\n        return true;\r\n    }\r\n\r\n    /**\r\n     * @dev Internal function to burn a specific token\r\n     * Reverts if the token does not exist\r\n     * @param tokenId uint256 ID of the token being burned by the msg.sender\r\n     */\r\n    function _burn(uint256 tokenId)\r\n        internal\r\n        override(ERC721, ERC721URIStorage)\r\n    {\r\n        require(_isApprovedOrOwner(msg.sender, tokenId));\r\n        super._burn(tokenId);\r\n        delete _tokenPerEvent[tokenId];\r\n    }\r\n}\r\n",
  "sourcePath": "C:\\Users\\Mohammad\\Repository\\Source\\Own\\BlackBoot\\BlackBoot-io\\Contracts\\src\\contracts\\ProofOfEvent.sol",
  "compiler": {
    "name": "solc",
    "version": "0.8.15+commit.e14f2714.Emscripten.clang"
  },
  "schemaVersion": "3.4.8",
  "updatedAt": "2022-08-19T09:38:35.204Z",
  "devdoc": {
    "kind": "dev",
    "methods": {
      "approve(address,uint256)": {
        "details": "See {IERC721-approve}."
      },
      "balanceOf(address)": {
        "details": "See {IERC721-balanceOf}."
      },
      "getApproved(uint256)": {
        "details": "See {IERC721-getApproved}."
      },
      "getEventId(uint256)": {
        "details": "Gets the event Id",
        "params": {
          "tokenId": "representing the token Id"
        },
        "returns": {
          "_0": "uint256 representing the event Id"
        }
      },
      "isApprovedForAll(address,address)": {
        "details": "See {IERC721-isApprovedForAll}."
      },
      "mintToken(uint256,string,address)": {
        "details": "Function to create and mint tokens",
        "params": {
          "eventId": "EventId for the new token",
          "to": "The address that will receive the minted tokens.",
          "tokenUri": "Address of NFT MetaData which is stored on IPFS"
        },
        "returns": {
          "_0": "A boolean that indicates if the operation was successful."
        }
      },
      "mintTokenToManyUsers(uint256,string[],address[])": {
        "details": "Function to mint tokens for Many Users",
        "params": {
          "eventId": "EventId for the new token",
          "to": "The address that will receive the minted tokens.",
          "tokenUri": "Address of NFT MetaData which is stored on IPFS"
        },
        "returns": {
          "_0": "A boolean that indicates if the operation was successful."
        }
      },
      "name()": {
        "details": "See {IERC721Metadata-name}."
      },
      "ownerOf(uint256)": {
        "details": "See {IERC721-ownerOf}."
      },
      "safeTransferFrom(address,address,uint256)": {
        "details": "See {IERC721-safeTransferFrom}."
      },
      "safeTransferFrom(address,address,uint256,bytes)": {
        "details": "See {IERC721-safeTransferFrom}."
      },
      "setApprovalForAll(address,bool)": {
        "details": "See {IERC721-setApprovalForAll}."
      },
      "symbol()": {
        "details": "See {IERC721Metadata-symbol}."
      },
      "tokenByIndex(uint256)": {
        "details": "See {IERC721Enumerable-tokenByIndex}."
      },
      "tokenOfOwnerByIndex(address,uint256)": {
        "details": "See {IERC721Enumerable-tokenOfOwnerByIndex}."
      },
      "totalSupply()": {
        "details": "See {IERC721Enumerable-totalSupply}."
      },
      "transferFrom(address,address,uint256)": {
        "details": "See {IERC721-transferFrom}."
      }
    },
    "version": 1
  },
  "userdoc": {
    "kind": "user",
    "methods": {},
    "version": 1
  }
}