{
  "contractName": "ProofOfEvent",
  "abi": [
    {
      "inputs": [],
      "stateMutability": "nonpayable",
      "type": "constructor"
    },
    {
      "anonymous": false,
      "inputs": [
        {
          "indexed": true,
          "internalType": "address",
          "name": "owner",
          "type": "address"
        },
        {
          "indexed": true,
          "internalType": "address",
          "name": "approved",
          "type": "address"
        },
        {
          "indexed": true,
          "internalType": "uint256",
          "name": "tokenId",
          "type": "uint256"
        }
      ],
      "name": "Approval",
      "type": "event"
    },
    {
      "anonymous": false,
      "inputs": [
        {
          "indexed": true,
          "internalType": "address",
          "name": "owner",
          "type": "address"
        },
        {
          "indexed": true,
          "internalType": "address",
          "name": "operator",
          "type": "address"
        },
        {
          "indexed": false,
          "internalType": "bool",
          "name": "approved",
          "type": "bool"
        }
      ],
      "name": "ApprovalForAll",
      "type": "event"
    },
    {
      "anonymous": false,
      "inputs": [
        {
          "indexed": false,
          "internalType": "uint256",
          "name": "eventId",
          "type": "uint256"
        },
        {
          "indexed": false,
          "internalType": "uint256",
          "name": "tokenId",
          "type": "uint256"
        }
      ],
      "name": "EventToken",
      "type": "event"
    },
    {
      "anonymous": false,
      "inputs": [
        {
          "indexed": true,
          "internalType": "address",
          "name": "from",
          "type": "address"
        },
        {
          "indexed": true,
          "internalType": "address",
          "name": "to",
          "type": "address"
        },
        {
          "indexed": true,
          "internalType": "uint256",
          "name": "tokenId",
          "type": "uint256"
        }
      ],
      "name": "Transfer",
      "type": "event"
    },
    {
      "inputs": [
        {
          "internalType": "address",
          "name": "to",
          "type": "address"
        },
        {
          "internalType": "uint256",
          "name": "tokenId",
          "type": "uint256"
        }
      ],
      "name": "approve",
      "outputs": [],
      "stateMutability": "nonpayable",
      "type": "function"
    },
    {
      "inputs": [
        {
          "internalType": "address",
          "name": "owner",
          "type": "address"
        }
      ],
      "name": "balanceOf",
      "outputs": [
        {
          "internalType": "uint256",
          "name": "",
          "type": "uint256"
        }
      ],
      "stateMutability": "view",
      "type": "function",
      "constant": true
    },
    {
      "inputs": [
        {
          "internalType": "uint256",
          "name": "tokenId",
          "type": "uint256"
        }
      ],
      "name": "getApproved",
      "outputs": [
        {
          "internalType": "address",
          "name": "",
          "type": "address"
        }
      ],
      "stateMutability": "view",
      "type": "function",
      "constant": true
    },
    {
      "inputs": [
        {
          "internalType": "address",
          "name": "owner",
          "type": "address"
        },
        {
          "internalType": "address",
          "name": "operator",
          "type": "address"
        }
      ],
      "name": "isApprovedForAll",
      "outputs": [
        {
          "internalType": "bool",
          "name": "",
          "type": "bool"
        }
      ],
      "stateMutability": "view",
      "type": "function",
      "constant": true
    },
    {
      "inputs": [],
      "name": "name",
      "outputs": [
        {
          "internalType": "string",
          "name": "",
          "type": "string"
        }
      ],
      "stateMutability": "view",
      "type": "function",
      "constant": true
    },
    {
      "inputs": [
        {
          "internalType": "uint256",
          "name": "tokenId",
          "type": "uint256"
        }
      ],
      "name": "ownerOf",
      "outputs": [
        {
          "internalType": "address",
          "name": "",
          "type": "address"
        }
      ],
      "stateMutability": "view",
      "type": "function",
      "constant": true
    },
    {
      "inputs": [
        {
          "internalType": "address",
          "name": "from",
          "type": "address"
        },
        {
          "internalType": "address",
          "name": "to",
          "type": "address"
        },
        {
          "internalType": "uint256",
          "name": "tokenId",
          "type": "uint256"
        }
      ],
      "name": "safeTransferFrom",
      "outputs": [],
      "stateMutability": "nonpayable",
      "type": "function"
    },
    {
      "inputs": [
        {
          "internalType": "address",
          "name": "from",
          "type": "address"
        },
        {
          "internalType": "address",
          "name": "to",
          "type": "address"
        },
        {
          "internalType": "uint256",
          "name": "tokenId",
          "type": "uint256"
        },
        {
          "internalType": "bytes",
          "name": "data",
          "type": "bytes"
        }
      ],
      "name": "safeTransferFrom",
      "outputs": [],
      "stateMutability": "nonpayable",
      "type": "function"
    },
    {
      "inputs": [
        {
          "internalType": "address",
          "name": "operator",
          "type": "address"
        },
        {
          "internalType": "bool",
          "name": "approved",
          "type": "bool"
        }
      ],
      "name": "setApprovalForAll",
      "outputs": [],
      "stateMutability": "nonpayable",
      "type": "function"
    },
    {
      "inputs": [
        {
          "internalType": "bytes4",
          "name": "interfaceId",
          "type": "bytes4"
        }
      ],
      "name": "supportsInterface",
      "outputs": [
        {
          "internalType": "bool",
          "name": "",
          "type": "bool"
        }
      ],
      "stateMutability": "view",
      "type": "function",
      "constant": true
    },
    {
      "inputs": [],
      "name": "symbol",
      "outputs": [
        {
          "internalType": "string",
          "name": "",
          "type": "string"
        }
      ],
      "stateMutability": "view",
      "type": "function",
      "constant": true
    },
    {
      "inputs": [
        {
          "internalType": "uint256",
          "name": "tokenId",
          "type": "uint256"
        }
      ],
      "name": "tokenURI",
      "outputs": [
        {
          "internalType": "string",
          "name": "",
          "type": "string"
        }
      ],
      "stateMutability": "view",
      "type": "function",
      "constant": true
    },
    {
      "inputs": [
        {
          "internalType": "address",
          "name": "from",
          "type": "address"
        },
        {
          "internalType": "address",
          "name": "to",
          "type": "address"
        },
        {
          "internalType": "uint256",
          "name": "tokenId",
          "type": "uint256"
        }
      ],
      "name": "transferFrom",
      "outputs": [],
      "stateMutability": "nonpayable",
      "type": "function"
    },
    {
      "inputs": [
        {
          "internalType": "uint256",
          "name": "tokenId",
          "type": "uint256"
        }
      ],
      "name": "getEventId",
      "outputs": [
        {
          "internalType": "uint256",
          "name": "",
          "type": "uint256"
        }
      ],
      "stateMutability": "view",
      "type": "function",
      "constant": true
    },
    {
      "inputs": [
        {
          "internalType": "uint256",
          "name": "eventId",
          "type": "uint256"
        },
        {
          "internalType": "string",
          "name": "tokenURI",
          "type": "string"
        },
        {
          "internalType": "address",
          "name": "to",
          "type": "address"
        }
      ],
      "name": "mintToken",
      "outputs": [
        {
          "internalType": "bool",
          "name": "",
          "type": "bool"
        }
      ],
      "stateMutability": "nonpayable",
      "type": "function"
    },
    {
      "inputs": [
        {
          "internalType": "uint256",
          "name": "eventId",
          "type": "uint256"
        },
        {
          "internalType": "string[]",
          "name": "tokenURI",
          "type": "string[]"
        },
        {
          "internalType": "address[]",
          "name": "to",
          "type": "address[]"
        }
      ],
      "name": "mintTokenToManyUsers",
      "outputs": [
        {
          "internalType": "bool",
          "name": "",
          "type": "bool"
        }
      ],
      "stateMutability": "nonpayable",
      "type": "function"
    }
  ],
  "bytecode": "0x60806040523480156200001157600080fd5b506040518060400160405280601281526020017f4176616e6f6450726f6f664f664576656e7400000000000000000000000000008152506040518060400160405280600881526020017f41564e50726f6f6600000000000000000000000000000000000000000000000081525081600090816200008f919062000324565b508060019081620000a1919062000324565b5050506200040b565b600081519050919050565b7f4e487b7100000000000000000000000000000000000000000000000000000000600052604160045260246000fd5b7f4e487b7100000000000000000000000000000000000000000000000000000000600052602260045260246000fd5b600060028204905060018216806200012c57607f821691505b602082108103620001425762000141620000e4565b5b50919050565b60008190508160005260206000209050919050565b60006020601f8301049050919050565b600082821b905092915050565b600060088302620001ac7fffffffffffffffffffffffffffffffffffffffffffffffffffffffffffffffff826200016d565b620001b886836200016d565b95508019841693508086168417925050509392505050565b6000819050919050565b6000819050919050565b600062000205620001ff620001f984620001d0565b620001da565b620001d0565b9050919050565b6000819050919050565b6200022183620001e4565b6200023962000230826200020c565b8484546200017a565b825550505050565b600090565b6200025062000241565b6200025d81848462000216565b505050565b5b8181101562000285576200027960008262000246565b60018101905062000263565b5050565b601f821115620002d4576200029e8162000148565b620002a9846200015d565b81016020851015620002b9578190505b620002d1620002c8856200015d565b83018262000262565b50505b505050565b600082821c905092915050565b6000620002f960001984600802620002d9565b1980831691505092915050565b6000620003148383620002e6565b9150826002028217905092915050565b6200032f82620000aa565b67ffffffffffffffff8111156200034b576200034a620000b5565b5b62000357825462000113565b6200036482828562000289565b600060209050601f8311600181146200039c576000841562000387578287015190505b62000393858262000306565b86555062000403565b601f198416620003ac8662000148565b60005b82811015620003d657848901518255600182019150602085019450602081019050620003af565b86831015620003f65784890151620003f2601f891682620002e6565b8355505b6001600288020188555050505b505050505050565b612e58806200041b6000396000f3fe608060405234801561001057600080fd5b50600436106101005760003560e01c806370a0823111610097578063b88d4fde11610066578063b88d4fde146102d1578063c3be559b146102ed578063c87b56dd1461031d578063e985e9c51461034d57610100565b806370a08231146102375780638da69c841461026757806395d89b4114610297578063a22cb465146102b557610100565b806323b872dd116100d357806323b872dd1461019f5780632751edb8146101bb57806342842e0e146101eb5780636352211e1461020757610100565b806301ffc9a71461010557806306fdde0314610135578063081812fc14610153578063095ea7b314610183575b600080fd5b61011f600480360381019061011a919061193c565b61037d565b60405161012c9190611984565b60405180910390f35b61013d61045f565b60405161014a9190611a38565b60405180910390f35b61016d60048036038101906101689190611a90565b6104f1565b60405161017a9190611afe565b60405180910390f35b61019d60048036038101906101989190611b45565b610537565b005b6101b960048036038101906101b49190611b85565b61064e565b005b6101d560048036038101906101d09190611eb6565b6106ae565b6040516101e29190611984565b60405180910390f35b61020560048036038101906102009190611b85565b610736565b005b610221600480360381019061021c9190611a90565b610756565b60405161022e9190611afe565b60405180910390f35b610251600480360381019061024c9190611f41565b610807565b60405161025e9190611f7d565b60405180910390f35b610281600480360381019061027c9190611f98565b6108be565b60405161028e9190611984565b60405180910390f35b61029f6108ee565b6040516102ac9190611a38565b60405180910390f35b6102cf60048036038101906102ca9190612033565b610980565b005b6102eb60048036038101906102e69190612114565b610996565b005b61030760048036038101906103029190611a90565b6109f8565b6040516103149190611f7d565b60405180910390f35b61033760048036038101906103329190611a90565b610a15565b6040516103449190611a38565b60405180910390f35b61036760048036038101906103629190612197565b610b27565b6040516103749190611984565b60405180910390f35b60007f80ac58cd000000000000000000000000000000000000000000000000000000007bffffffffffffffffffffffffffffffffffffffffffffffffffffffff1916827bffffffffffffffffffffffffffffffffffffffffffffffffffffffff1916148061044857507f5b5e139f000000000000000000000000000000000000000000000000000000007bffffffffffffffffffffffffffffffffffffffffffffffffffffffff1916827bffffffffffffffffffffffffffffffffffffffffffffffffffffffff1916145b80610458575061045782610bbb565b5b9050919050565b60606000805461046e90612206565b80601f016020809104026020016040519081016040528092919081815260200182805461049a90612206565b80156104e75780601f106104bc576101008083540402835291602001916104e7565b820191906000526020600020905b8154815290600101906020018083116104ca57829003601f168201915b5050505050905090565b60006104fc82610c25565b6004600083815260200190815260200160002060009054906101000a900473ffffffffffffffffffffffffffffffffffffffff169050919050565b600061054282610756565b90508073ffffffffffffffffffffffffffffffffffffffff168373ffffffffffffffffffffffffffffffffffffffff16036105b2576040517f08c379a00000000000000000000000000000000000000000000000000000000081526004016105a9906122a9565b60405180910390fd5b8073ffffffffffffffffffffffffffffffffffffffff166105d1610c70565b73ffffffffffffffffffffffffffffffffffffffff16148061060057506105ff816105fa610c70565b610b27565b5b61063f576040517f08c379a00000000000000000000000000000000000000000000000000000000081526004016106369061233b565b60405180910390fd5b6106498383610c78565b505050565b61065f610659610c70565b82610d31565b61069e576040517f08c379a0000000000000000000000000000000000000000000000000000000008152600401610695906123cd565b60405180910390fd5b6106a9838383610dc6565b505050565b6000806000905060005b8351811015610729576106cb600761102c565b6106d56007611042565b9150610717828683815181106106ee576106ed6123ed565b5b60200260200101518887858151811061070a576107096123ed565b5b6020026020010151611050565b50806107229061244b565b90506106b8565b5060019150509392505050565b61075183838360405180602001604052806000815250610996565b505050565b6000806002600084815260200190815260200160002060009054906101000a900473ffffffffffffffffffffffffffffffffffffffff169050600073ffffffffffffffffffffffffffffffffffffffff168173ffffffffffffffffffffffffffffffffffffffff16036107fe576040517f08c379a00000000000000000000000000000000000000000000000000000000081526004016107f5906124df565b60405180910390fd5b80915050919050565b60008073ffffffffffffffffffffffffffffffffffffffff168273ffffffffffffffffffffffffffffffffffffffff1603610877576040517f08c379a000000000000000000000000000000000000000000000000000000000815260040161086e90612571565b60405180910390fd5b600360008373ffffffffffffffffffffffffffffffffffffffff1673ffffffffffffffffffffffffffffffffffffffff168152602001908152602001600020549050919050565b60006108ca600761102c565b60006108d66007611042565b90506108e481858786611050565b9150509392505050565b6060600180546108fd90612206565b80601f016020809104026020016040519081016040528092919081815260200182805461092990612206565b80156109765780601f1061094b57610100808354040283529160200191610976565b820191906000526020600020905b81548152906001019060200180831161095957829003601f168201915b5050505050905090565b61099261098b610c70565b83836110c3565b5050565b6109a76109a1610c70565b83610d31565b6109e6576040517f08c379a00000000000000000000000000000000000000000000000000000000081526004016109dd906123cd565b60405180910390fd5b6109f28484848461122f565b50505050565b600060086000838152602001908152602001600020549050919050565b6060610a2082610c25565b6000600660008481526020019081526020016000208054610a4090612206565b80601f0160208091040260200160405190810160405280929190818152602001828054610a6c90612206565b8015610ab95780601f10610a8e57610100808354040283529160200191610ab9565b820191906000526020600020905b815481529060010190602001808311610a9c57829003601f168201915b505050505090506000610aca61128b565b90506000815103610adf578192505050610b22565b600082511115610b14578082604051602001610afc9291906125cd565b60405160208183030381529060405292505050610b22565b610b1d846112a2565b925050505b919050565b6000600560008473ffffffffffffffffffffffffffffffffffffffff1673ffffffffffffffffffffffffffffffffffffffff16815260200190815260200160002060008373ffffffffffffffffffffffffffffffffffffffff1673ffffffffffffffffffffffffffffffffffffffff16815260200190815260200160002060009054906101000a900460ff16905092915050565b60007f01ffc9a7000000000000000000000000000000000000000000000000000000007bffffffffffffffffffffffffffffffffffffffffffffffffffffffff1916827bffffffffffffffffffffffffffffffffffffffffffffffffffffffff1916149050919050565b610c2e8161130a565b610c6d576040517f08c379a0000000000000000000000000000000000000000000000000000000008152600401610c64906124df565b60405180910390fd5b50565b600033905090565b816004600083815260200190815260200160002060006101000a81548173ffffffffffffffffffffffffffffffffffffffff021916908373ffffffffffffffffffffffffffffffffffffffff160217905550808273ffffffffffffffffffffffffffffffffffffffff16610ceb83610756565b73ffffffffffffffffffffffffffffffffffffffff167f8c5be1e5ebec7d5bd14f71427d1e84f3dd0314c0f7b2291e5b200ac8c7c3b92560405160405180910390a45050565b600080610d3d83610756565b90508073ffffffffffffffffffffffffffffffffffffffff168473ffffffffffffffffffffffffffffffffffffffff161480610d7f5750610d7e8185610b27565b5b80610dbd57508373ffffffffffffffffffffffffffffffffffffffff16610da5846104f1565b73ffffffffffffffffffffffffffffffffffffffff16145b91505092915050565b8273ffffffffffffffffffffffffffffffffffffffff16610de682610756565b73ffffffffffffffffffffffffffffffffffffffff1614610e3c576040517f08c379a0000000000000000000000000000000000000000000000000000000008152600401610e3390612663565b60405180910390fd5b600073ffffffffffffffffffffffffffffffffffffffff168273ffffffffffffffffffffffffffffffffffffffff1603610eab576040517f08c379a0000000000000000000000000000000000000000000000000000000008152600401610ea2906126f5565b60405180910390fd5b610eb6838383611376565b610ec1600082610c78565b6001600360008573ffffffffffffffffffffffffffffffffffffffff1673ffffffffffffffffffffffffffffffffffffffff1681526020019081526020016000206000828254610f119190612715565b925050819055506001600360008473ffffffffffffffffffffffffffffffffffffffff1673ffffffffffffffffffffffffffffffffffffffff1681526020019081526020016000206000828254610f689190612749565b92505081905550816002600083815260200190815260200160002060006101000a81548173ffffffffffffffffffffffffffffffffffffffff021916908373ffffffffffffffffffffffffffffffffffffffff160217905550808273ffffffffffffffffffffffffffffffffffffffff168473ffffffffffffffffffffffffffffffffffffffff167fddf252ad1be2c89b69c2b068fc378daa952ba7f163c4a11628f55a4df523b3ef60405160405180910390a461102783838361137b565b505050565b6001816000016000828254019250508190555050565b600081600001549050919050565b600061105c8286611380565b6110668585611559565b8260086000878152602001908152602001600020819055507f4b3711cd7ece062b0828c1b6e08d814a72d4c003383a016c833cbb1b45956e3483866040516110af92919061279f565b60405180910390a160019050949350505050565b8173ffffffffffffffffffffffffffffffffffffffff168373ffffffffffffffffffffffffffffffffffffffff1603611131576040517f08c379a000000000000000000000000000000000000000000000000000000000815260040161112890612814565b60405180910390fd5b80600560008573ffffffffffffffffffffffffffffffffffffffff1673ffffffffffffffffffffffffffffffffffffffff16815260200190815260200160002060008473ffffffffffffffffffffffffffffffffffffffff1673ffffffffffffffffffffffffffffffffffffffff16815260200190815260200160002060006101000a81548160ff0219169083151502179055508173ffffffffffffffffffffffffffffffffffffffff168373ffffffffffffffffffffffffffffffffffffffff167f17307eab39ab6107e8899845ad3d59bd9653f200f220920489ca2b5937696c31836040516112229190611984565b60405180910390a3505050565b61123a848484610dc6565b611246848484846115c6565b611285576040517f08c379a000000000000000000000000000000000000000000000000000000000815260040161127c906128a6565b60405180910390fd5b50505050565b606060405180602001604052806000815250905090565b60606112ad82610c25565b60006112b761128b565b905060008151116112d75760405180602001604052806000815250611302565b806112e18461174d565b6040516020016112f29291906125cd565b6040516020818303038152906040525b915050919050565b60008073ffffffffffffffffffffffffffffffffffffffff166002600084815260200190815260200160002060009054906101000a900473ffffffffffffffffffffffffffffffffffffffff1673ffffffffffffffffffffffffffffffffffffffff1614159050919050565b505050565b505050565b600073ffffffffffffffffffffffffffffffffffffffff168273ffffffffffffffffffffffffffffffffffffffff16036113ef576040517f08c379a00000000000000000000000000000000000000000000000000000000081526004016113e690612912565b60405180910390fd5b6113f88161130a565b15611438576040517f08c379a000000000000000000000000000000000000000000000000000000000815260040161142f9061297e565b60405180910390fd5b61144460008383611376565b6001600360008473ffffffffffffffffffffffffffffffffffffffff1673ffffffffffffffffffffffffffffffffffffffff16815260200190815260200160002060008282546114949190612749565b92505081905550816002600083815260200190815260200160002060006101000a81548173ffffffffffffffffffffffffffffffffffffffff021916908373ffffffffffffffffffffffffffffffffffffffff160217905550808273ffffffffffffffffffffffffffffffffffffffff16600073ffffffffffffffffffffffffffffffffffffffff167fddf252ad1be2c89b69c2b068fc378daa952ba7f163c4a11628f55a4df523b3ef60405160405180910390a46115556000838361137b565b5050565b6115628261130a565b6115a1576040517f08c379a000000000000000000000000000000000000000000000000000000000815260040161159890612a10565b60405180910390fd5b806006600084815260200190815260200160002090816115c19190612bdc565b505050565b60006115e78473ffffffffffffffffffffffffffffffffffffffff166118ad565b15611740578373ffffffffffffffffffffffffffffffffffffffff1663150b7a02611610610c70565b8786866040518563ffffffff1660e01b81526004016116329493929190612d03565b6020604051808303816000875af192505050801561166e57506040513d601f19601f8201168201806040525081019061166b9190612d64565b60015b6116f0573d806000811461169e576040519150601f19603f3d011682016040523d82523d6000602084013e6116a3565b606091505b5060008151036116e8576040517f08c379a00000000000000000000000000000000000000000000000000000000081526004016116df906128a6565b60405180910390fd5b805181602001fd5b63150b7a0260e01b7bffffffffffffffffffffffffffffffffffffffffffffffffffffffff1916817bffffffffffffffffffffffffffffffffffffffffffffffffffffffff191614915050611745565b600190505b949350505050565b606060008203611794576040518060400160405280600181526020017f300000000000000000000000000000000000000000000000000000000000000081525090506118a8565b600082905060005b600082146117c65780806117af9061244b565b915050600a826117bf9190612dc0565b915061179c565b60008167ffffffffffffffff8111156117e2576117e1611bdd565b5b6040519080825280601f01601f1916602001820160405280156118145781602001600182028036833780820191505090505b5090505b600085146118a15760018261182d9190612715565b9150600a8561183c9190612df1565b60306118489190612749565b60f81b81838151811061185e5761185d6123ed565b5b60200101907effffffffffffffffffffffffffffffffffffffffffffffffffffffffffffff1916908160001a905350600a8561189a9190612dc0565b9450611818565b8093505050505b919050565b6000808273ffffffffffffffffffffffffffffffffffffffff163b119050919050565b6000604051905090565b600080fd5b600080fd5b60007fffffffff0000000000000000000000000000000000000000000000000000000082169050919050565b611919816118e4565b811461192457600080fd5b50565b60008135905061193681611910565b92915050565b600060208284031215611952576119516118da565b5b600061196084828501611927565b91505092915050565b60008115159050919050565b61197e81611969565b82525050565b60006020820190506119996000830184611975565b92915050565b600081519050919050565b600082825260208201905092915050565b60005b838110156119d95780820151818401526020810190506119be565b838111156119e8576000848401525b50505050565b6000601f19601f8301169050919050565b6000611a0a8261199f565b611a1481856119aa565b9350611a248185602086016119bb565b611a2d816119ee565b840191505092915050565b60006020820190508181036000830152611a5281846119ff565b905092915050565b6000819050919050565b611a6d81611a5a565b8114611a7857600080fd5b50565b600081359050611a8a81611a64565b92915050565b600060208284031215611aa657611aa56118da565b5b6000611ab484828501611a7b565b91505092915050565b600073ffffffffffffffffffffffffffffffffffffffff82169050919050565b6000611ae882611abd565b9050919050565b611af881611add565b82525050565b6000602082019050611b136000830184611aef565b92915050565b611b2281611add565b8114611b2d57600080fd5b50565b600081359050611b3f81611b19565b92915050565b60008060408385031215611b5c57611b5b6118da565b5b6000611b6a85828601611b30565b9250506020611b7b85828601611a7b565b9150509250929050565b600080600060608486031215611b9e57611b9d6118da565b5b6000611bac86828701611b30565b9350506020611bbd86828701611b30565b9250506040611bce86828701611a7b565b9150509250925092565b600080fd5b7f4e487b7100000000000000000000000000000000000000000000000000000000600052604160045260246000fd5b611c15826119ee565b810181811067ffffffffffffffff82111715611c3457611c33611bdd565b5b80604052505050565b6000611c476118d0565b9050611c538282611c0c565b919050565b600067ffffffffffffffff821115611c7357611c72611bdd565b5b602082029050602081019050919050565b600080fd5b600080fd5b600067ffffffffffffffff821115611ca957611ca8611bdd565b5b611cb2826119ee565b9050602081019050919050565b82818337600083830152505050565b6000611ce1611cdc84611c8e565b611c3d565b905082815260208101848484011115611cfd57611cfc611c89565b5b611d08848285611cbf565b509392505050565b600082601f830112611d2557611d24611bd8565b5b8135611d35848260208601611cce565b91505092915050565b6000611d51611d4c84611c58565b611c3d565b90508083825260208201905060208402830185811115611d7457611d73611c84565b5b835b81811015611dbb57803567ffffffffffffffff811115611d9957611d98611bd8565b5b808601611da68982611d10565b85526020850194505050602081019050611d76565b5050509392505050565b600082601f830112611dda57611dd9611bd8565b5b8135611dea848260208601611d3e565b91505092915050565b600067ffffffffffffffff821115611e0e57611e0d611bdd565b5b602082029050602081019050919050565b6000611e32611e2d84611df3565b611c3d565b90508083825260208201905060208402830185811115611e5557611e54611c84565b5b835b81811015611e7e5780611e6a8882611b30565b845260208401935050602081019050611e57565b5050509392505050565b600082601f830112611e9d57611e9c611bd8565b5b8135611ead848260208601611e1f565b91505092915050565b600080600060608486031215611ecf57611ece6118da565b5b6000611edd86828701611a7b565b935050602084013567ffffffffffffffff811115611efe57611efd6118df565b5b611f0a86828701611dc5565b925050604084013567ffffffffffffffff811115611f2b57611f2a6118df565b5b611f3786828701611e88565b9150509250925092565b600060208284031215611f5757611f566118da565b5b6000611f6584828501611b30565b91505092915050565b611f7781611a5a565b82525050565b6000602082019050611f926000830184611f6e565b92915050565b600080600060608486031215611fb157611fb06118da565b5b6000611fbf86828701611a7b565b935050602084013567ffffffffffffffff811115611fe057611fdf6118df565b5b611fec86828701611d10565b9250506040611ffd86828701611b30565b9150509250925092565b61201081611969565b811461201b57600080fd5b50565b60008135905061202d81612007565b92915050565b6000806040838503121561204a576120496118da565b5b600061205885828601611b30565b92505060206120698582860161201e565b9150509250929050565b600067ffffffffffffffff82111561208e5761208d611bdd565b5b612097826119ee565b9050602081019050919050565b60006120b76120b284612073565b611c3d565b9050828152602081018484840111156120d3576120d2611c89565b5b6120de848285611cbf565b509392505050565b600082601f8301126120fb576120fa611bd8565b5b813561210b8482602086016120a4565b91505092915050565b6000806000806080858703121561212e5761212d6118da565b5b600061213c87828801611b30565b945050602061214d87828801611b30565b935050604061215e87828801611a7b565b925050606085013567ffffffffffffffff81111561217f5761217e6118df565b5b61218b878288016120e6565b91505092959194509250565b600080604083850312156121ae576121ad6118da565b5b60006121bc85828601611b30565b92505060206121cd85828601611b30565b9150509250929050565b7f4e487b7100000000000000000000000000000000000000000000000000000000600052602260045260246000fd5b6000600282049050600182168061221e57607f821691505b602082108103612231576122306121d7565b5b50919050565b7f4552433732313a20617070726f76616c20746f2063757272656e74206f776e6560008201527f7200000000000000000000000000000000000000000000000000000000000000602082015250565b60006122936021836119aa565b915061229e82612237565b604082019050919050565b600060208201905081810360008301526122c281612286565b9050919050565b7f4552433732313a20617070726f76652063616c6c6572206973206e6f7420746f60008201527f6b656e206f776e6572206e6f7220617070726f76656420666f7220616c6c0000602082015250565b6000612325603e836119aa565b9150612330826122c9565b604082019050919050565b6000602082019050818103600083015261235481612318565b9050919050565b7f4552433732313a2063616c6c6572206973206e6f7420746f6b656e206f776e6560008201527f72206e6f7220617070726f766564000000000000000000000000000000000000602082015250565b60006123b7602e836119aa565b91506123c28261235b565b604082019050919050565b600060208201905081810360008301526123e6816123aa565b9050919050565b7f4e487b7100000000000000000000000000000000000000000000000000000000600052603260045260246000fd5b7f4e487b7100000000000000000000000000000000000000000000000000000000600052601160045260246000fd5b600061245682611a5a565b91507fffffffffffffffffffffffffffffffffffffffffffffffffffffffffffffffff82036124885761248761241c565b5b600182019050919050565b7f4552433732313a20696e76616c696420746f6b656e2049440000000000000000600082015250565b60006124c96018836119aa565b91506124d482612493565b602082019050919050565b600060208201905081810360008301526124f8816124bc565b9050919050565b7f4552433732313a2061646472657373207a65726f206973206e6f74206120766160008201527f6c6964206f776e65720000000000000000000000000000000000000000000000602082015250565b600061255b6029836119aa565b9150612566826124ff565b604082019050919050565b6000602082019050818103600083015261258a8161254e565b9050919050565b600081905092915050565b60006125a78261199f565b6125b18185612591565b93506125c18185602086016119bb565b80840191505092915050565b60006125d9828561259c565b91506125e5828461259c565b91508190509392505050565b7f4552433732313a207472616e736665722066726f6d20696e636f72726563742060008201527f6f776e6572000000000000000000000000000000000000000000000000000000602082015250565b600061264d6025836119aa565b9150612658826125f1565b604082019050919050565b6000602082019050818103600083015261267c81612640565b9050919050565b7f4552433732313a207472616e7366657220746f20746865207a65726f2061646460008201527f7265737300000000000000000000000000000000000000000000000000000000602082015250565b60006126df6024836119aa565b91506126ea82612683565b604082019050919050565b6000602082019050818103600083015261270e816126d2565b9050919050565b600061272082611a5a565b915061272b83611a5a565b92508282101561273e5761273d61241c565b5b828203905092915050565b600061275482611a5a565b915061275f83611a5a565b9250827fffffffffffffffffffffffffffffffffffffffffffffffffffffffffffffffff038211156127945761279361241c565b5b828201905092915050565b60006040820190506127b46000830185611f6e565b6127c16020830184611f6e565b9392505050565b7f4552433732313a20617070726f766520746f2063616c6c657200000000000000600082015250565b60006127fe6019836119aa565b9150612809826127c8565b602082019050919050565b6000602082019050818103600083015261282d816127f1565b9050919050565b7f4552433732313a207472616e7366657220746f206e6f6e20455243373231526560008201527f63656976657220696d706c656d656e7465720000000000000000000000000000602082015250565b60006128906032836119aa565b915061289b82612834565b604082019050919050565b600060208201905081810360008301526128bf81612883565b9050919050565b7f4552433732313a206d696e7420746f20746865207a65726f2061646472657373600082015250565b60006128fc6020836119aa565b9150612907826128c6565b602082019050919050565b6000602082019050818103600083015261292b816128ef565b9050919050565b7f4552433732313a20746f6b656e20616c7265616479206d696e74656400000000600082015250565b6000612968601c836119aa565b915061297382612932565b602082019050919050565b600060208201905081810360008301526129978161295b565b9050919050565b7f45524337323155524953746f726167653a2055524920736574206f66206e6f6e60008201527f6578697374656e7420746f6b656e000000000000000000000000000000000000602082015250565b60006129fa602e836119aa565b9150612a058261299e565b604082019050919050565b60006020820190508181036000830152612a29816129ed565b9050919050565b60008190508160005260206000209050919050565b60006020601f8301049050919050565b600082821b905092915050565b600060088302612a927fffffffffffffffffffffffffffffffffffffffffffffffffffffffffffffffff82612a55565b612a9c8683612a55565b95508019841693508086168417925050509392505050565b6000819050919050565b6000612ad9612ad4612acf84611a5a565b612ab4565b611a5a565b9050919050565b6000819050919050565b612af383612abe565b612b07612aff82612ae0565b848454612a62565b825550505050565b600090565b612b1c612b0f565b612b27818484612aea565b505050565b5b81811015612b4b57612b40600082612b14565b600181019050612b2d565b5050565b601f821115612b9057612b6181612a30565b612b6a84612a45565b81016020851015612b79578190505b612b8d612b8585612a45565b830182612b2c565b50505b505050565b600082821c905092915050565b6000612bb360001984600802612b95565b1980831691505092915050565b6000612bcc8383612ba2565b9150826002028217905092915050565b612be58261199f565b67ffffffffffffffff811115612bfe57612bfd611bdd565b5b612c088254612206565b612c13828285612b4f565b600060209050601f831160018114612c465760008415612c34578287015190505b612c3e8582612bc0565b865550612ca6565b601f198416612c5486612a30565b60005b82811015612c7c57848901518255600182019150602085019450602081019050612c57565b86831015612c995784890151612c95601f891682612ba2565b8355505b6001600288020188555050505b505050505050565b600081519050919050565b600082825260208201905092915050565b6000612cd582612cae565b612cdf8185612cb9565b9350612cef8185602086016119bb565b612cf8816119ee565b840191505092915050565b6000608082019050612d186000830187611aef565b612d256020830186611aef565b612d326040830185611f6e565b8181036060830152612d448184612cca565b905095945050505050565b600081519050612d5e81611910565b92915050565b600060208284031215612d7a57612d796118da565b5b6000612d8884828501612d4f565b91505092915050565b7f4e487b7100000000000000000000000000000000000000000000000000000000600052601260045260246000fd5b6000612dcb82611a5a565b9150612dd683611a5a565b925082612de657612de5612d91565b5b828204905092915050565b6000612dfc82611a5a565b9150612e0783611a5a565b925082612e1757612e16612d91565b5b82820690509291505056fea2646970667358221220f2cfc5318edd7be0bb093d67ba7d39d910ae57fa1b79a82d28c963a77a991ebb64736f6c634300080f0033",
  "immutableReferences": {},
  "source": "// SPDX-License-Identifier: GPL-3.0\r\npragma solidity >=0.7.0 <0.9.0;\r\n\r\nimport \"@openzeppelin/contracts-upgradeable/proxy/utils/Initializable.sol\";\r\nimport \"@openzeppelin/contracts/token/ERC721/extensions/ERC721URIStorage.sol\";\r\nimport \"@openzeppelin/contracts/token/ERC721/ERC721.sol\";\r\nimport \"@openzeppelin/contracts/utils/Counters.sol\";\r\n\r\ncontract ProofOfEvent is ERC721URIStorage {\r\n    event EventToken(uint256 eventId, uint256 tokenId);\r\n    using Counters for Counters.Counter;\r\n\r\n    // Last Used id (used to generate new ids)\r\n    Counters.Counter private _lastTokenId;\r\n\r\n    // Event Id for each token, this is a dictionary to hold (TokenId,EventId)\r\n    mapping(uint256 => uint256) private _tokenPerEvent;\r\n\r\n    constructor() ERC721(\"AvanodProofOfEvent\", \"AVNProof\") {}\r\n\r\n    /**\r\n     * @dev Gets the event Id\r\n     * @param tokenId representing the token Id\r\n     * @return uint256 representing the event Id\r\n     */\r\n    function getEventId(uint256 tokenId) external view returns (uint256) {\r\n        return _tokenPerEvent[tokenId];\r\n    }\r\n\r\n    /**\r\n     * @dev Function to create and mint tokens\r\n     * @param eventId EventId for the new token\r\n     * @param tokenURI Address of NFT MetaData which is stored on IPFS\r\n     * @param to The address that will receive the minted tokens.\r\n     * @return A boolean that indicates if the operation was successful.\r\n     */\r\n    function mintToken(\r\n        uint256 eventId,\r\n        string memory tokenURI,\r\n        address to\r\n    ) public returns (bool) {\r\n        _lastTokenId.increment();\r\n        uint256 __tokenId = _lastTokenId.current();\r\n        return _mintToken(__tokenId, tokenURI, eventId, to);\r\n    }\r\n\r\n    /**\r\n     * @dev Function to mint tokens for Many Users\r\n     * @param eventId EventId for the new token\r\n     * @param tokenURI Address of NFT MetaData which is stored on IPFS\r\n     * @param to The address that will receive the minted tokens.\r\n     * @return A boolean that indicates if the operation was successful.\r\n     */\r\n    function mintTokenToManyUsers(\r\n        uint256 eventId,\r\n        string[] memory tokenURI,\r\n        address[] memory to\r\n    ) public returns (bool) {\r\n        uint256 __tokenId = 0;\r\n        for (uint256 i = 0; i < to.length; ++i) {\r\n            _lastTokenId.increment();\r\n            __tokenId = _lastTokenId.current();\r\n            _mintToken(__tokenId, tokenURI[i], eventId, to[i]);\r\n        }\r\n        return true;\r\n    }\r\n\r\n    /**\r\n     * @dev Function to mint tokens\r\n     * @param tokenId The token id to mint.\r\n     * @param eventId EventId for the new token\r\n     * @param tokenURI TokenURI to store on ERC721URIStorage.\r\n     * @param to The address that will receive the minted tokens.\r\n     * @return A boolean that indicates if the operation was successful.\r\n     */\r\n    function _mintToken(\r\n        uint256 tokenId,\r\n        string memory tokenURI,\r\n        uint256 eventId,\r\n        address to\r\n    ) internal returns (bool) {\r\n        // TODO Verify that the token receiver ('to') do not have already a token for the event ('eventId')\r\n\r\n        _mint(to, tokenId);\r\n        _setTokenURI(tokenId, tokenURI);\r\n        _tokenPerEvent[tokenId] = eventId;\r\n        emit EventToken(eventId, tokenId);\r\n        return true;\r\n    }\r\n\r\n    /**\r\n     * @dev Internal function to burn a specific token\r\n     * Reverts if the token does not exist\r\n     * @param tokenId uint256 ID of the token being burned by the msg.sender\r\n     */\r\n    function _burn(uint256 tokenId) internal override {\r\n        require(_isApprovedOrOwner(msg.sender, tokenId));\r\n        super._burn(tokenId);\r\n        delete _tokenPerEvent[tokenId];\r\n    }\r\n}\r\n",
  "sourcePath": "C:\\Users\\Mohammad\\Repository\\Source\\Own\\BlackBoot\\BlackBoot-io\\Contracts\\src\\contracts\\ProofOfEvent.sol",
  "compiler": {
    "name": "solc",
    "version": "0.8.15+commit.e14f2714.Emscripten.clang"
  },
  "schemaVersion": "3.4.8",
  "updatedAt": "2022-08-10T16:56:10.017Z",
  "networkType": "ethereum",
  "devdoc": {
    "kind": "dev",
    "methods": {
      "approve(address,uint256)": {
        "details": "See {IERC721-approve}."
      },
      "balanceOf(address)": {
        "details": "See {IERC721-balanceOf}."
      },
      "getApproved(uint256)": {
        "details": "See {IERC721-getApproved}."
      },
      "getEventId(uint256)": {
        "details": "Gets the event Id",
        "params": {
          "tokenId": "representing the token Id"
        },
        "returns": {
          "_0": "uint256 representing the event Id"
        }
      },
      "isApprovedForAll(address,address)": {
        "details": "See {IERC721-isApprovedForAll}."
      },
      "mintToken(uint256,string,address)": {
        "details": "Function to create and mint tokens",
        "params": {
          "eventId": "EventId for the new token",
          "to": "The address that will receive the minted tokens.",
          "tokenURI": "Address of NFT MetaData which is stored on IPFS"
        },
        "returns": {
          "_0": "A boolean that indicates if the operation was successful."
        }
      },
      "mintTokenToManyUsers(uint256,string[],address[])": {
        "details": "Function to mint tokens for Many Users",
        "params": {
          "eventId": "EventId for the new token",
          "to": "The address that will receive the minted tokens.",
          "tokenURI": "Address of NFT MetaData which is stored on IPFS"
        },
        "returns": {
          "_0": "A boolean that indicates if the operation was successful."
        }
      },
      "name()": {
        "details": "See {IERC721Metadata-name}."
      },
      "ownerOf(uint256)": {
        "details": "See {IERC721-ownerOf}."
      },
      "safeTransferFrom(address,address,uint256)": {
        "details": "See {IERC721-safeTransferFrom}."
      },
      "safeTransferFrom(address,address,uint256,bytes)": {
        "details": "See {IERC721-safeTransferFrom}."
      },
      "setApprovalForAll(address,bool)": {
        "details": "See {IERC721-setApprovalForAll}."
      },
      "supportsInterface(bytes4)": {
        "details": "See {IERC165-supportsInterface}."
      },
      "symbol()": {
        "details": "See {IERC721Metadata-symbol}."
      },
      "tokenURI(uint256)": {
        "details": "See {IERC721Metadata-tokenURI}."
      },
      "transferFrom(address,address,uint256)": {
        "details": "See {IERC721-transferFrom}."
      }
    },
    "version": 1
  },
  "userdoc": {
    "kind": "user",
    "methods": {},
    "version": 1
  }
}